{
  "_format": "hh-sol-artifact-1",
  "contractName": "RCToken",
  "sourceName": "contracts/RCToken.sol",
  "abi": [
    {
      "inputs": [],
      "stateMutability": "nonpayable",
      "type": "constructor"
    },
    {
      "inputs": [
        {
          "internalType": "address",
          "name": "spender",
          "type": "address"
        },
        {
          "internalType": "uint256",
          "name": "allowance",
          "type": "uint256"
        },
        {
          "internalType": "uint256",
          "name": "needed",
          "type": "uint256"
        }
      ],
      "name": "ERC20InsufficientAllowance",
      "type": "error"
    },
    {
      "inputs": [
        {
          "internalType": "address",
          "name": "sender",
          "type": "address"
        },
        {
          "internalType": "uint256",
          "name": "balance",
          "type": "uint256"
        },
        {
          "internalType": "uint256",
          "name": "needed",
          "type": "uint256"
        }
      ],
      "name": "ERC20InsufficientBalance",
      "type": "error"
    },
    {
      "inputs": [
        {
          "internalType": "address",
          "name": "approver",
          "type": "address"
        }
      ],
      "name": "ERC20InvalidApprover",
      "type": "error"
    },
    {
      "inputs": [
        {
          "internalType": "address",
          "name": "receiver",
          "type": "address"
        }
      ],
      "name": "ERC20InvalidReceiver",
      "type": "error"
    },
    {
      "inputs": [
        {
          "internalType": "address",
          "name": "sender",
          "type": "address"
        }
      ],
      "name": "ERC20InvalidSender",
      "type": "error"
    },
    {
      "inputs": [
        {
          "internalType": "address",
          "name": "spender",
          "type": "address"
        }
      ],
      "name": "ERC20InvalidSpender",
      "type": "error"
    },
    {
      "inputs": [
        {
          "internalType": "address",
          "name": "owner",
          "type": "address"
        }
      ],
      "name": "OwnableInvalidOwner",
      "type": "error"
    },
    {
      "inputs": [
        {
          "internalType": "address",
          "name": "account",
          "type": "address"
        }
      ],
      "name": "OwnableUnauthorizedAccount",
      "type": "error"
    },
    {
      "anonymous": false,
      "inputs": [
        {
          "indexed": true,
          "internalType": "address",
          "name": "owner",
          "type": "address"
        },
        {
          "indexed": true,
          "internalType": "address",
          "name": "spender",
          "type": "address"
        },
        {
          "indexed": false,
          "internalType": "uint256",
          "name": "value",
          "type": "uint256"
        }
      ],
      "name": "Approval",
      "type": "event"
    },
    {
      "anonymous": false,
      "inputs": [
        {
          "indexed": true,
          "internalType": "address",
          "name": "previousOwner",
          "type": "address"
        },
        {
          "indexed": true,
          "internalType": "address",
          "name": "newOwner",
          "type": "address"
        }
      ],
      "name": "OwnershipTransferred",
      "type": "event"
    },
    {
      "anonymous": false,
      "inputs": [
        {
          "indexed": true,
          "internalType": "address",
          "name": "from",
          "type": "address"
        },
        {
          "indexed": true,
          "internalType": "address",
          "name": "to",
          "type": "address"
        },
        {
          "indexed": false,
          "internalType": "uint256",
          "name": "value",
          "type": "uint256"
        }
      ],
      "name": "Transfer",
      "type": "event"
    },
    {
      "anonymous": false,
      "inputs": [
        {
          "indexed": true,
          "internalType": "address",
          "name": "user",
          "type": "address"
        },
        {
          "indexed": false,
          "internalType": "uint256",
          "name": "token",
          "type": "uint256"
        },
        {
          "indexed": false,
          "internalType": "uint256",
          "name": "time",
          "type": "uint256"
        }
      ],
      "name": "claimlog",
      "type": "event"
    },
    {
      "anonymous": false,
      "inputs": [
        {
          "indexed": true,
          "internalType": "address",
          "name": "user",
          "type": "address"
        },
        {
          "indexed": false,
          "internalType": "uint256",
          "name": "token",
          "type": "uint256"
        },
        {
          "indexed": false,
          "internalType": "uint256",
          "name": "time",
          "type": "uint256"
        }
      ],
      "name": "minelog",
      "type": "event"
    },
    {
      "inputs": [
        {
          "internalType": "uint256",
          "name": "_interval",
          "type": "uint256"
        }
      ],
      "name": "ChangeInterval",
      "outputs": [],
      "stateMutability": "nonpayable",
      "type": "function"
    },
    {
      "inputs": [
        {
          "internalType": "uint256",
          "name": "_mineRate",
          "type": "uint256"
        }
      ],
      "name": "ChangeRate",
      "outputs": [],
      "stateMutability": "nonpayable",
      "type": "function"
    },
    {
      "inputs": [],
      "name": "Claim",
      "outputs": [],
      "stateMutability": "nonpayable",
      "type": "function"
    },
    {
      "inputs": [],
      "name": "Mine",
      "outputs": [],
      "stateMutability": "nonpayable",
      "type": "function"
    },
    {
      "inputs": [
        {
          "internalType": "address",
          "name": "owner",
          "type": "address"
        },
        {
          "internalType": "address",
          "name": "spender",
          "type": "address"
        }
      ],
      "name": "allowance",
      "outputs": [
        {
          "internalType": "uint256",
          "name": "",
          "type": "uint256"
        }
      ],
      "stateMutability": "view",
      "type": "function"
    },
    {
      "inputs": [
        {
          "internalType": "address",
          "name": "spender",
          "type": "address"
        },
        {
          "internalType": "uint256",
          "name": "value",
          "type": "uint256"
        }
      ],
      "name": "approve",
      "outputs": [
        {
          "internalType": "bool",
          "name": "",
          "type": "bool"
        }
      ],
      "stateMutability": "nonpayable",
      "type": "function"
    },
    {
      "inputs": [
        {
          "internalType": "address",
          "name": "account",
          "type": "address"
        }
      ],
      "name": "balanceOf",
      "outputs": [
        {
          "internalType": "uint256",
          "name": "",
          "type": "uint256"
        }
      ],
      "stateMutability": "view",
      "type": "function"
    },
    {
      "inputs": [],
      "name": "decimals",
      "outputs": [
        {
          "internalType": "uint8",
          "name": "",
          "type": "uint8"
        }
      ],
      "stateMutability": "view",
      "type": "function"
    },
    {
      "inputs": [],
      "name": "interval",
      "outputs": [
        {
          "internalType": "uint256",
          "name": "",
          "type": "uint256"
        }
      ],
      "stateMutability": "view",
      "type": "function"
    },
    {
      "inputs": [
        {
          "internalType": "address",
          "name": "",
          "type": "address"
        }
      ],
      "name": "isMining",
      "outputs": [
        {
          "internalType": "bool",
          "name": "",
          "type": "bool"
        }
      ],
      "stateMutability": "view",
      "type": "function"
    },
    {
      "inputs": [
        {
          "internalType": "address",
          "name": "",
          "type": "address"
        }
      ],
      "name": "joinDate",
      "outputs": [
        {
          "internalType": "uint256",
          "name": "",
          "type": "uint256"
        }
      ],
      "stateMutability": "view",
      "type": "function"
    },
    {
      "inputs": [
        {
          "internalType": "address",
          "name": "",
          "type": "address"
        }
      ],
      "name": "lastMined",
      "outputs": [
        {
          "internalType": "uint256",
          "name": "",
          "type": "uint256"
        }
      ],
      "stateMutability": "view",
      "type": "function"
    },
    {
      "inputs": [
        {
          "internalType": "address",
          "name": "",
          "type": "address"
        }
      ],
      "name": "mineCount",
      "outputs": [
        {
          "internalType": "uint256",
          "name": "",
          "type": "uint256"
        }
      ],
      "stateMutability": "view",
      "type": "function"
    },
    {
      "inputs": [],
      "name": "mineRate",
      "outputs": [
        {
          "internalType": "uint256",
          "name": "",
          "type": "uint256"
        }
      ],
      "stateMutability": "view",
      "type": "function"
    },
    {
      "inputs": [],
      "name": "name",
      "outputs": [
        {
          "internalType": "string",
          "name": "",
          "type": "string"
        }
      ],
      "stateMutability": "view",
      "type": "function"
    },
    {
      "inputs": [],
      "name": "owner",
      "outputs": [
        {
          "internalType": "address",
          "name": "",
          "type": "address"
        }
      ],
      "stateMutability": "view",
      "type": "function"
    },
    {
      "inputs": [],
      "name": "renounceOwnership",
      "outputs": [],
      "stateMutability": "nonpayable",
      "type": "function"
    },
    {
      "inputs": [],
      "name": "symbol",
      "outputs": [
        {
          "internalType": "string",
          "name": "",
          "type": "string"
        }
      ],
      "stateMutability": "view",
      "type": "function"
    },
    {
      "inputs": [
        {
          "internalType": "address",
          "name": "",
          "type": "address"
        }
      ],
      "name": "totalMined",
      "outputs": [
        {
          "internalType": "uint256",
          "name": "",
          "type": "uint256"
        }
      ],
      "stateMutability": "view",
      "type": "function"
    },
    {
      "inputs": [],
      "name": "totalSupply",
      "outputs": [
        {
          "internalType": "uint256",
          "name": "",
          "type": "uint256"
        }
      ],
      "stateMutability": "view",
      "type": "function"
    },
    {
      "inputs": [
        {
          "internalType": "address",
          "name": "to",
          "type": "address"
        },
        {
          "internalType": "uint256",
          "name": "value",
          "type": "uint256"
        }
      ],
      "name": "transfer",
      "outputs": [
        {
          "internalType": "bool",
          "name": "",
          "type": "bool"
        }
      ],
      "stateMutability": "nonpayable",
      "type": "function"
    },
    {
      "inputs": [
        {
          "internalType": "address",
          "name": "from",
          "type": "address"
        },
        {
          "internalType": "address",
          "name": "to",
          "type": "address"
        },
        {
          "internalType": "uint256",
          "name": "value",
          "type": "uint256"
        }
      ],
      "name": "transferFrom",
      "outputs": [
        {
          "internalType": "bool",
          "name": "",
          "type": "bool"
        }
      ],
      "stateMutability": "nonpayable",
      "type": "function"
    },
    {
      "inputs": [
        {
          "internalType": "address",
          "name": "newOwner",
          "type": "address"
        }
      ],
      "name": "transferOwnership",
      "outputs": [],
      "stateMutability": "nonpayable",
      "type": "function"
    }
  ],
  "bytecode": "0x6080604052600160065561012c60075534801561001b57600080fd5b50336040518060400160405280600781526020017f5243546f6b656e000000000000000000000000000000000000000000000000008152506040518060400160405280600281526020017f524300000000000000000000000000000000000000000000000000000000000081525081600390816100989190610448565b5080600490816100a89190610448565b505050600073ffffffffffffffffffffffffffffffffffffffff168173ffffffffffffffffffffffffffffffffffffffff160361011d5760006040517f1e4fbdf7000000000000000000000000000000000000000000000000000000008152600401610114919061055b565b60405180910390fd5b61012c8161013260201b60201c565b50610576565b6000600560009054906101000a900473ffffffffffffffffffffffffffffffffffffffff16905081600560006101000a81548173ffffffffffffffffffffffffffffffffffffffff021916908373ffffffffffffffffffffffffffffffffffffffff1602179055508173ffffffffffffffffffffffffffffffffffffffff168173ffffffffffffffffffffffffffffffffffffffff167f8be0079c531659141344cd1fd0a4f28419497f9722a3daafe3b4186f6b6457e060405160405180910390a35050565b600081519050919050565b7f4e487b7100000000000000000000000000000000000000000000000000000000600052604160045260246000fd5b7f4e487b7100000000000000000000000000000000000000000000000000000000600052602260045260246000fd5b6000600282049050600182168061027957607f821691505b60208210810361028c5761028b610232565b5b50919050565b60008190508160005260206000209050919050565b60006020601f8301049050919050565b600082821b905092915050565b6000600883026102f47fffffffffffffffffffffffffffffffffffffffffffffffffffffffffffffffff826102b7565b6102fe86836102b7565b95508019841693508086168417925050509392505050565b6000819050919050565b6000819050919050565b600061034561034061033b84610316565b610320565b610316565b9050919050565b6000819050919050565b61035f8361032a565b61037361036b8261034c565b8484546102c4565b825550505050565b600090565b61038861037b565b610393818484610356565b505050565b5b818110156103b7576103ac600082610380565b600181019050610399565b5050565b601f8211156103fc576103cd81610292565b6103d6846102a7565b810160208510156103e5578190505b6103f96103f1856102a7565b830182610398565b50505b505050565b600082821c905092915050565b600061041f60001984600802610401565b1980831691505092915050565b6000610438838361040e565b9150826002028217905092915050565b610451826101f8565b67ffffffffffffffff81111561046a57610469610203565b5b6104748254610261565b61047f8282856103bb565b600060209050601f8311600181146104b257600084156104a0578287015190505b6104aa858261042c565b865550610512565b601f1984166104c086610292565b60005b828110156104e8578489015182556001820191506020850194506020810190506104c3565b868310156105055784890151610501601f89168261040e565b8355505b6001600288020188555050505b505050505050565b600073ffffffffffffffffffffffffffffffffffffffff82169050919050565b60006105458261051a565b9050919050565b6105558161053a565b82525050565b6000602082019050610570600083018461054c565b92915050565b611c14806105856000396000f3fe608060405234801561001057600080fd5b506004361061014d5760003560e01c806348e64817116100c357806395d89b411161007c57806395d89b411461037c578063a9059cbb1461039a578063c4163518146103ca578063dd62ed3e146103fa578063dd6a4a7f1461042a578063f2fde38b1461045a5761014d565b806348e64817146102ba5780635a75aa1c146102ea57806370a0823114610306578063715018a6146103365780638da5cb5b14610340578063947a36fb1461035e5761014d565b806323b872dd1161011557806323b872dd1461020a5780632628ba0f1461023a578063313ce5671461026a5780633158952e1461028857806334a924091461029257806342c8705b146102b05761014d565b806305313b1c1461015257806306fdde031461016e578063095ea7b31461018c57806318160ddd146101bc5780631e82b1b9146101da575b600080fd5b61016c60048036038101906101679190611525565b610476565b005b610176610494565b60405161018391906115e2565b60405180910390f35b6101a660048036038101906101a19190611662565b610526565b6040516101b391906116bd565b60405180910390f35b6101c4610549565b6040516101d191906116e7565b60405180910390f35b6101f460048036038101906101ef9190611702565b610553565b60405161020191906116e7565b60405180910390f35b610224600480360381019061021f919061172f565b61056b565b60405161023191906116bd565b60405180910390f35b610254600480360381019061024f9190611702565b61059a565b60405161026191906116e7565b60405180910390f35b6102726105b2565b60405161027f919061179e565b60405180910390f35b6102906105bb565b005b61029a610899565b6040516102a791906116e7565b60405180910390f35b6102b861089f565b005b6102d460048036038101906102cf9190611702565b610acc565b6040516102e191906116e7565b60405180910390f35b61030460048036038101906102ff9190611525565b610ae4565b005b610320600480360381019061031b9190611702565b610af6565b60405161032d91906116e7565b60405180910390f35b61033e610b3e565b005b610348610b52565b60405161035591906117c8565b60405180910390f35b610366610b7c565b60405161037391906116e7565b60405180910390f35b610384610b82565b60405161039191906115e2565b60405180910390f35b6103b460048036038101906103af9190611662565b610c14565b6040516103c191906116bd565b60405180910390f35b6103e460048036038101906103df9190611702565b610c37565b6040516103f191906116bd565b60405180910390f35b610414600480360381019061040f91906117e3565b610c57565b60405161042191906116e7565b60405180910390f35b610444600480360381019061043f9190611702565b610cde565b60405161045191906116e7565b60405180910390f35b610474600480360381019061046f9190611702565b610cf6565b005b61047e610d7c565b603c8161048b9190611852565b60078190555050565b6060600380546104a3906118c3565b80601f01602080910402602001604051908101604052809291908181526020018280546104cf906118c3565b801561051c5780601f106104f15761010080835404028352916020019161051c565b820191906000526020600020905b8154815290600101906020018083116104ff57829003601f168201915b5050505050905090565b600080610531610e03565b905061053e818585610e0b565b600191505092915050565b6000600254905090565b600b6020528060005260406000206000915090505481565b600080610576610e03565b9050610583858285610e1d565b61058e858585610eb2565b60019150509392505050565b600c6020528060005260406000206000915090505481565b60006012905090565b6000600860003373ffffffffffffffffffffffffffffffffffffffff1673ffffffffffffffffffffffffffffffffffffffff1681526020019081526020016000205414806106545750600754600860003373ffffffffffffffffffffffffffffffffffffffff1673ffffffffffffffffffffffffffffffffffffffff1681526020019081526020016000205461065191906118f4565b42115b610693576040517f08c379a000000000000000000000000000000000000000000000000000000000815260040161068a90611974565b60405180910390fd5b6106bd3361069f6105b2565b600a6106ab9190611ac7565b6006546106b89190611852565b610fa6565b6106c56105b2565b600a6106d19190611ac7565b6006546106de9190611852565b600960003373ffffffffffffffffffffffffffffffffffffffff1673ffffffffffffffffffffffffffffffffffffffff168152602001908152602001600020600082825461072c91906118f4565b925050819055506000600860003373ffffffffffffffffffffffffffffffffffffffff1673ffffffffffffffffffffffffffffffffffffffff168152602001908152602001600020819055506000600a60003373ffffffffffffffffffffffffffffffffffffffff1673ffffffffffffffffffffffffffffffffffffffff16815260200190815260200160002060006101000a81548160ff0219169083151502179055506001600b60003373ffffffffffffffffffffffffffffffffffffffff1673ffffffffffffffffffffffffffffffffffffffff168152602001908152602001600020600082825461082091906118f4565b925050819055503373ffffffffffffffffffffffffffffffffffffffff167fa7a99cf2e5969c917da06fc242708fb1b50604fa39e99c73924c8f4a292339e96108676105b2565b600a6108739190611ac7565b6006546108809190611852565b4260405161088f929190611b12565b60405180910390a2565b60065481565b60001515600a60003373ffffffffffffffffffffffffffffffffffffffff1673ffffffffffffffffffffffffffffffffffffffff16815260200190815260200160002060009054906101000a900460ff16151514610932576040517f08c379a000000000000000000000000000000000000000000000000000000000815260040161092990611b87565b60405180910390fd5b42600860003373ffffffffffffffffffffffffffffffffffffffff1673ffffffffffffffffffffffffffffffffffffffff168152602001908152602001600020819055506001600a60003373ffffffffffffffffffffffffffffffffffffffff1673ffffffffffffffffffffffffffffffffffffffff16815260200190815260200160002060006101000a81548160ff0219169083151502179055503373ffffffffffffffffffffffffffffffffffffffff167ff7a9b37ce495c53179857e71e15773736a301ae3c1299343d64e7aefad712d3b610a0e6105b2565b600a610a1a9190611ac7565b600654610a279190611852565b42604051610a36929190611b12565b60405180910390a26000600c60003373ffffffffffffffffffffffffffffffffffffffff1673ffffffffffffffffffffffffffffffffffffffff1681526020019081526020016000205403610aca5742600c60003373ffffffffffffffffffffffffffffffffffffffff1673ffffffffffffffffffffffffffffffffffffffff168152602001908152602001600020819055505b565b60086020528060005260406000206000915090505481565b610aec610d7c565b8060068190555050565b60008060008373ffffffffffffffffffffffffffffffffffffffff1673ffffffffffffffffffffffffffffffffffffffff168152602001908152602001600020549050919050565b610b46610d7c565b610b506000611028565b565b6000600560009054906101000a900473ffffffffffffffffffffffffffffffffffffffff16905090565b60075481565b606060048054610b91906118c3565b80601f0160208091040260200160405190810160405280929190818152602001828054610bbd906118c3565b8015610c0a5780601f10610bdf57610100808354040283529160200191610c0a565b820191906000526020600020905b815481529060010190602001808311610bed57829003601f168201915b5050505050905090565b600080610c1f610e03565b9050610c2c818585610eb2565b600191505092915050565b600a6020528060005260406000206000915054906101000a900460ff1681565b6000600160008473ffffffffffffffffffffffffffffffffffffffff1673ffffffffffffffffffffffffffffffffffffffff16815260200190815260200160002060008373ffffffffffffffffffffffffffffffffffffffff1673ffffffffffffffffffffffffffffffffffffffff16815260200190815260200160002054905092915050565b60096020528060005260406000206000915090505481565b610cfe610d7c565b600073ffffffffffffffffffffffffffffffffffffffff168173ffffffffffffffffffffffffffffffffffffffff1603610d705760006040517f1e4fbdf7000000000000000000000000000000000000000000000000000000008152600401610d6791906117c8565b60405180910390fd5b610d7981611028565b50565b610d84610e03565b73ffffffffffffffffffffffffffffffffffffffff16610da2610b52565b73ffffffffffffffffffffffffffffffffffffffff1614610e0157610dc5610e03565b6040517f118cdaa7000000000000000000000000000000000000000000000000000000008152600401610df891906117c8565b60405180910390fd5b565b600033905090565b610e1883838360016110ee565b505050565b6000610e298484610c57565b90507fffffffffffffffffffffffffffffffffffffffffffffffffffffffffffffffff811015610eac5781811015610e9c578281836040517ffb8f41b2000000000000000000000000000000000000000000000000000000008152600401610e9393929190611ba7565b60405180910390fd5b610eab848484840360006110ee565b5b50505050565b600073ffffffffffffffffffffffffffffffffffffffff168373ffffffffffffffffffffffffffffffffffffffff1603610f245760006040517f96c6fd1e000000000000000000000000000000000000000000000000000000008152600401610f1b91906117c8565b60405180910390fd5b600073ffffffffffffffffffffffffffffffffffffffff168273ffffffffffffffffffffffffffffffffffffffff1603610f965760006040517fec442f05000000000000000000000000000000000000000000000000000000008152600401610f8d91906117c8565b60405180910390fd5b610fa18383836112c5565b505050565b600073ffffffffffffffffffffffffffffffffffffffff168273ffffffffffffffffffffffffffffffffffffffff16036110185760006040517fec442f0500000000000000000000000000000000000000000000000000000000815260040161100f91906117c8565b60405180910390fd5b611024600083836112c5565b5050565b6000600560009054906101000a900473ffffffffffffffffffffffffffffffffffffffff16905081600560006101000a81548173ffffffffffffffffffffffffffffffffffffffff021916908373ffffffffffffffffffffffffffffffffffffffff1602179055508173ffffffffffffffffffffffffffffffffffffffff168173ffffffffffffffffffffffffffffffffffffffff167f8be0079c531659141344cd1fd0a4f28419497f9722a3daafe3b4186f6b6457e060405160405180910390a35050565b600073ffffffffffffffffffffffffffffffffffffffff168473ffffffffffffffffffffffffffffffffffffffff16036111605760006040517fe602df0500000000000000000000000000000000000000000000000000000000815260040161115791906117c8565b60405180910390fd5b600073ffffffffffffffffffffffffffffffffffffffff168373ffffffffffffffffffffffffffffffffffffffff16036111d25760006040517f94280d620000000000000000000000000000000000000000000000000000000081526004016111c991906117c8565b60405180910390fd5b81600160008673ffffffffffffffffffffffffffffffffffffffff1673ffffffffffffffffffffffffffffffffffffffff16815260200190815260200160002060008573ffffffffffffffffffffffffffffffffffffffff1673ffffffffffffffffffffffffffffffffffffffff1681526020019081526020016000208190555080156112bf578273ffffffffffffffffffffffffffffffffffffffff168473ffffffffffffffffffffffffffffffffffffffff167f8c5be1e5ebec7d5bd14f71427d1e84f3dd0314c0f7b2291e5b200ac8c7c3b925846040516112b691906116e7565b60405180910390a35b50505050565b600073ffffffffffffffffffffffffffffffffffffffff168373ffffffffffffffffffffffffffffffffffffffff160361131757806002600082825461130b91906118f4565b925050819055506113ea565b60008060008573ffffffffffffffffffffffffffffffffffffffff1673ffffffffffffffffffffffffffffffffffffffff168152602001908152602001600020549050818110156113a3578381836040517fe450d38c00000000000000000000000000000000000000000000000000000000815260040161139a93929190611ba7565b60405180910390fd5b8181036000808673ffffffffffffffffffffffffffffffffffffffff1673ffffffffffffffffffffffffffffffffffffffff16815260200190815260200160002081905550505b600073ffffffffffffffffffffffffffffffffffffffff168273ffffffffffffffffffffffffffffffffffffffff16036114335780600260008282540392505081905550611480565b806000808473ffffffffffffffffffffffffffffffffffffffff1673ffffffffffffffffffffffffffffffffffffffff168152602001908152602001600020600082825401925050819055505b8173ffffffffffffffffffffffffffffffffffffffff168373ffffffffffffffffffffffffffffffffffffffff167fddf252ad1be2c89b69c2b068fc378daa952ba7f163c4a11628f55a4df523b3ef836040516114dd91906116e7565b60405180910390a3505050565b600080fd5b6000819050919050565b611502816114ef565b811461150d57600080fd5b50565b60008135905061151f816114f9565b92915050565b60006020828403121561153b5761153a6114ea565b5b600061154984828501611510565b91505092915050565b600081519050919050565b600082825260208201905092915050565b60005b8381101561158c578082015181840152602081019050611571565b60008484015250505050565b6000601f19601f8301169050919050565b60006115b482611552565b6115be818561155d565b93506115ce81856020860161156e565b6115d781611598565b840191505092915050565b600060208201905081810360008301526115fc81846115a9565b905092915050565b600073ffffffffffffffffffffffffffffffffffffffff82169050919050565b600061162f82611604565b9050919050565b61163f81611624565b811461164a57600080fd5b50565b60008135905061165c81611636565b92915050565b60008060408385031215611679576116786114ea565b5b60006116878582860161164d565b925050602061169885828601611510565b9150509250929050565b60008115159050919050565b6116b7816116a2565b82525050565b60006020820190506116d260008301846116ae565b92915050565b6116e1816114ef565b82525050565b60006020820190506116fc60008301846116d8565b92915050565b600060208284031215611718576117176114ea565b5b60006117268482850161164d565b91505092915050565b600080600060608486031215611748576117476114ea565b5b60006117568682870161164d565b93505060206117678682870161164d565b925050604061177886828701611510565b9150509250925092565b600060ff82169050919050565b61179881611782565b82525050565b60006020820190506117b3600083018461178f565b92915050565b6117c281611624565b82525050565b60006020820190506117dd60008301846117b9565b92915050565b600080604083850312156117fa576117f96114ea565b5b60006118088582860161164d565b92505060206118198582860161164d565b9150509250929050565b7f4e487b7100000000000000000000000000000000000000000000000000000000600052601160045260246000fd5b600061185d826114ef565b9150611868836114ef565b9250828202611876816114ef565b9150828204841483151761188d5761188c611823565b5b5092915050565b7f4e487b7100000000000000000000000000000000000000000000000000000000600052602260045260246000fd5b600060028204905060018216806118db57607f821691505b6020821081036118ee576118ed611894565b5b50919050565b60006118ff826114ef565b915061190a836114ef565b925082820190508082111561192257611921611823565b5b92915050565b7f4d696e69672069736e277420656e642079657400000000000000000000000000600082015250565b600061195e60138361155d565b915061196982611928565b602082019050919050565b6000602082019050818103600083015261198d81611951565b9050919050565b60008160011c9050919050565b6000808291508390505b60018511156119eb578086048111156119c7576119c6611823565b5b60018516156119d65780820291505b80810290506119e485611994565b94506119ab565b94509492505050565b600082611a045760019050611ac0565b81611a125760009050611ac0565b8160018114611a285760028114611a3257611a61565b6001915050611ac0565b60ff841115611a4457611a43611823565b5b8360020a915084821115611a5b57611a5a611823565b5b50611ac0565b5060208310610133831016604e8410600b8410161715611a965782820a905083811115611a9157611a90611823565b5b611ac0565b611aa384848460016119a1565b92509050818404811115611aba57611ab9611823565b5b81810290505b9392505050565b6000611ad2826114ef565b9150611add83611782565b9250611b0a7fffffffffffffffffffffffffffffffffffffffffffffffffffffffffffffffff84846119f4565b905092915050565b6000604082019050611b2760008301856116d8565b611b3460208301846116d8565b9392505050565b7f416c7265616479206d696e696e672e2e2e2e0000000000000000000000000000600082015250565b6000611b7160128361155d565b9150611b7c82611b3b565b602082019050919050565b60006020820190508181036000830152611ba081611b64565b9050919050565b6000606082019050611bbc60008301866117b9565b611bc960208301856116d8565b611bd660408301846116d8565b94935050505056fea2646970667358221220c8f325741e218d9f8df943222b133ca78b5df18851feace893d6649df06bdaa864736f6c634300081c0033",
  "linkReferences": {},
  "deployedLinkReferences": {}
}