{
  "_format": "hh-sol-artifact-1",
  "contractName": "RCToken",
  "sourceName": "contracts/RCToken.sol",
  "abi": [
    {
      "inputs": [],
      "stateMutability": "nonpayable",
      "type": "constructor"
    },
    {
      "inputs": [
        {
          "internalType": "address",
          "name": "spender",
          "type": "address"
        },
        {
          "internalType": "uint256",
          "name": "allowance",
          "type": "uint256"
        },
        {
          "internalType": "uint256",
          "name": "needed",
          "type": "uint256"
        }
      ],
      "name": "ERC20InsufficientAllowance",
      "type": "error"
    },
    {
      "inputs": [
        {
          "internalType": "address",
          "name": "sender",
          "type": "address"
        },
        {
          "internalType": "uint256",
          "name": "balance",
          "type": "uint256"
        },
        {
          "internalType": "uint256",
          "name": "needed",
          "type": "uint256"
        }
      ],
      "name": "ERC20InsufficientBalance",
      "type": "error"
    },
    {
      "inputs": [
        {
          "internalType": "address",
          "name": "approver",
          "type": "address"
        }
      ],
      "name": "ERC20InvalidApprover",
      "type": "error"
    },
    {
      "inputs": [
        {
          "internalType": "address",
          "name": "receiver",
          "type": "address"
        }
      ],
      "name": "ERC20InvalidReceiver",
      "type": "error"
    },
    {
      "inputs": [
        {
          "internalType": "address",
          "name": "sender",
          "type": "address"
        }
      ],
      "name": "ERC20InvalidSender",
      "type": "error"
    },
    {
      "inputs": [
        {
          "internalType": "address",
          "name": "spender",
          "type": "address"
        }
      ],
      "name": "ERC20InvalidSpender",
      "type": "error"
    },
    {
      "inputs": [
        {
          "internalType": "address",
          "name": "owner",
          "type": "address"
        }
      ],
      "name": "OwnableInvalidOwner",
      "type": "error"
    },
    {
      "inputs": [
        {
          "internalType": "address",
          "name": "account",
          "type": "address"
        }
      ],
      "name": "OwnableUnauthorizedAccount",
      "type": "error"
    },
    {
      "anonymous": false,
      "inputs": [
        {
          "indexed": true,
          "internalType": "address",
          "name": "owner",
          "type": "address"
        },
        {
          "indexed": true,
          "internalType": "address",
          "name": "spender",
          "type": "address"
        },
        {
          "indexed": false,
          "internalType": "uint256",
          "name": "value",
          "type": "uint256"
        }
      ],
      "name": "Approval",
      "type": "event"
    },
    {
      "anonymous": false,
      "inputs": [
        {
          "indexed": true,
          "internalType": "address",
          "name": "previousOwner",
          "type": "address"
        },
        {
          "indexed": true,
          "internalType": "address",
          "name": "newOwner",
          "type": "address"
        }
      ],
      "name": "OwnershipTransferred",
      "type": "event"
    },
    {
      "anonymous": false,
      "inputs": [
        {
          "indexed": true,
          "internalType": "address",
          "name": "from",
          "type": "address"
        },
        {
          "indexed": true,
          "internalType": "address",
          "name": "to",
          "type": "address"
        },
        {
          "indexed": false,
          "internalType": "uint256",
          "name": "value",
          "type": "uint256"
        }
      ],
      "name": "Transfer",
      "type": "event"
    },
    {
      "anonymous": false,
      "inputs": [
        {
          "indexed": true,
          "internalType": "address",
          "name": "user",
          "type": "address"
        },
        {
          "indexed": false,
          "internalType": "uint256",
          "name": "token",
          "type": "uint256"
        },
        {
          "indexed": false,
          "internalType": "uint256",
          "name": "time",
          "type": "uint256"
        }
      ],
      "name": "claimlog",
      "type": "event"
    },
    {
      "anonymous": false,
      "inputs": [
        {
          "indexed": true,
          "internalType": "address",
          "name": "user",
          "type": "address"
        },
        {
          "indexed": false,
          "internalType": "uint256",
          "name": "token",
          "type": "uint256"
        },
        {
          "indexed": false,
          "internalType": "uint256",
          "name": "time",
          "type": "uint256"
        }
      ],
      "name": "minelog",
      "type": "event"
    },
    {
      "inputs": [
        {
          "internalType": "uint256",
          "name": "_interval",
          "type": "uint256"
        }
      ],
      "name": "ChangeInterval",
      "outputs": [],
      "stateMutability": "nonpayable",
      "type": "function"
    },
    {
      "inputs": [
        {
          "internalType": "uint256",
          "name": "_mineRate",
          "type": "uint256"
        }
      ],
      "name": "ChangeRate",
      "outputs": [],
      "stateMutability": "nonpayable",
      "type": "function"
    },
    {
      "inputs": [],
      "name": "Claim",
      "outputs": [],
      "stateMutability": "nonpayable",
      "type": "function"
    },
    {
      "inputs": [],
      "name": "Mine",
      "outputs": [],
      "stateMutability": "nonpayable",
      "type": "function"
    },
    {
      "inputs": [
        {
          "internalType": "address",
          "name": "owner",
          "type": "address"
        },
        {
          "internalType": "address",
          "name": "spender",
          "type": "address"
        }
      ],
      "name": "allowance",
      "outputs": [
        {
          "internalType": "uint256",
          "name": "",
          "type": "uint256"
        }
      ],
      "stateMutability": "view",
      "type": "function"
    },
    {
      "inputs": [
        {
          "internalType": "address",
          "name": "spender",
          "type": "address"
        },
        {
          "internalType": "uint256",
          "name": "value",
          "type": "uint256"
        }
      ],
      "name": "approve",
      "outputs": [
        {
          "internalType": "bool",
          "name": "",
          "type": "bool"
        }
      ],
      "stateMutability": "nonpayable",
      "type": "function"
    },
    {
      "inputs": [
        {
          "internalType": "address",
          "name": "account",
          "type": "address"
        }
      ],
      "name": "balanceOf",
      "outputs": [
        {
          "internalType": "uint256",
          "name": "",
          "type": "uint256"
        }
      ],
      "stateMutability": "view",
      "type": "function"
    },
    {
      "inputs": [],
      "name": "decimals",
      "outputs": [
        {
          "internalType": "uint8",
          "name": "",
          "type": "uint8"
        }
      ],
      "stateMutability": "view",
      "type": "function"
    },
    {
      "inputs": [],
      "name": "interval",
      "outputs": [
        {
          "internalType": "uint256",
          "name": "",
          "type": "uint256"
        }
      ],
      "stateMutability": "view",
      "type": "function"
    },
    {
      "inputs": [
        {
          "internalType": "address",
          "name": "",
          "type": "address"
        }
      ],
      "name": "isMining",
      "outputs": [
        {
          "internalType": "bool",
          "name": "",
          "type": "bool"
        }
      ],
      "stateMutability": "view",
      "type": "function"
    },
    {
      "inputs": [
        {
          "internalType": "address",
          "name": "",
          "type": "address"
        }
      ],
      "name": "joinDate",
      "outputs": [
        {
          "internalType": "uint256",
          "name": "",
          "type": "uint256"
        }
      ],
      "stateMutability": "view",
      "type": "function"
    },
    {
      "inputs": [
        {
          "internalType": "address",
          "name": "",
          "type": "address"
        }
      ],
      "name": "lastMined",
      "outputs": [
        {
          "internalType": "uint256",
          "name": "",
          "type": "uint256"
        }
      ],
      "stateMutability": "view",
      "type": "function"
    },
    {
      "inputs": [
        {
          "internalType": "address",
          "name": "",
          "type": "address"
        }
      ],
      "name": "mineCount",
      "outputs": [
        {
          "internalType": "uint256",
          "name": "",
          "type": "uint256"
        }
      ],
      "stateMutability": "view",
      "type": "function"
    },
    {
      "inputs": [],
      "name": "mineRate",
      "outputs": [
        {
          "internalType": "uint256",
          "name": "",
          "type": "uint256"
        }
      ],
      "stateMutability": "view",
      "type": "function"
    },
    {
      "inputs": [],
      "name": "name",
      "outputs": [
        {
          "internalType": "string",
          "name": "",
          "type": "string"
        }
      ],
      "stateMutability": "view",
      "type": "function"
    },
    {
      "inputs": [],
      "name": "owner",
      "outputs": [
        {
          "internalType": "address",
          "name": "",
          "type": "address"
        }
      ],
      "stateMutability": "view",
      "type": "function"
    },
    {
      "inputs": [],
      "name": "renounceOwnership",
      "outputs": [],
      "stateMutability": "nonpayable",
      "type": "function"
    },
    {
      "inputs": [],
      "name": "symbol",
      "outputs": [
        {
          "internalType": "string",
          "name": "",
          "type": "string"
        }
      ],
      "stateMutability": "view",
      "type": "function"
    },
    {
      "inputs": [
        {
          "internalType": "address",
          "name": "",
          "type": "address"
        }
      ],
      "name": "totalMined",
      "outputs": [
        {
          "internalType": "uint256",
          "name": "",
          "type": "uint256"
        }
      ],
      "stateMutability": "view",
      "type": "function"
    },
    {
      "inputs": [],
      "name": "totalSupply",
      "outputs": [
        {
          "internalType": "uint256",
          "name": "",
          "type": "uint256"
        }
      ],
      "stateMutability": "view",
      "type": "function"
    },
    {
      "inputs": [
        {
          "internalType": "address",
          "name": "to",
          "type": "address"
        },
        {
          "internalType": "uint256",
          "name": "value",
          "type": "uint256"
        }
      ],
      "name": "transfer",
      "outputs": [
        {
          "internalType": "bool",
          "name": "",
          "type": "bool"
        }
      ],
      "stateMutability": "nonpayable",
      "type": "function"
    },
    {
      "inputs": [
        {
          "internalType": "address",
          "name": "from",
          "type": "address"
        },
        {
          "internalType": "address",
          "name": "to",
          "type": "address"
        },
        {
          "internalType": "uint256",
          "name": "value",
          "type": "uint256"
        }
      ],
      "name": "transferFrom",
      "outputs": [
        {
          "internalType": "bool",
          "name": "",
          "type": "bool"
        }
      ],
      "stateMutability": "nonpayable",
      "type": "function"
    },
    {
      "inputs": [
        {
          "internalType": "address",
          "name": "newOwner",
          "type": "address"
        }
      ],
      "name": "transferOwnership",
      "outputs": [],
      "stateMutability": "nonpayable",
      "type": "function"
    }
  ],
  "bytecode": "0x608060405260016006556201518060075534801561001c57600080fd5b50336040518060400160405280600781526020017f5243546f6b656e000000000000000000000000000000000000000000000000008152506040518060400160405280600281526020017f524300000000000000000000000000000000000000000000000000000000000081525081600390816100999190610449565b5080600490816100a99190610449565b505050600073ffffffffffffffffffffffffffffffffffffffff168173ffffffffffffffffffffffffffffffffffffffff160361011e5760006040517f1e4fbdf7000000000000000000000000000000000000000000000000000000008152600401610115919061055c565b60405180910390fd5b61012d8161013360201b60201c565b50610577565b6000600560009054906101000a900473ffffffffffffffffffffffffffffffffffffffff16905081600560006101000a81548173ffffffffffffffffffffffffffffffffffffffff021916908373ffffffffffffffffffffffffffffffffffffffff1602179055508173ffffffffffffffffffffffffffffffffffffffff168173ffffffffffffffffffffffffffffffffffffffff167f8be0079c531659141344cd1fd0a4f28419497f9722a3daafe3b4186f6b6457e060405160405180910390a35050565b600081519050919050565b7f4e487b7100000000000000000000000000000000000000000000000000000000600052604160045260246000fd5b7f4e487b7100000000000000000000000000000000000000000000000000000000600052602260045260246000fd5b6000600282049050600182168061027a57607f821691505b60208210810361028d5761028c610233565b5b50919050565b60008190508160005260206000209050919050565b60006020601f8301049050919050565b600082821b905092915050565b6000600883026102f57fffffffffffffffffffffffffffffffffffffffffffffffffffffffffffffffff826102b8565b6102ff86836102b8565b95508019841693508086168417925050509392505050565b6000819050919050565b6000819050919050565b600061034661034161033c84610317565b610321565b610317565b9050919050565b6000819050919050565b6103608361032b565b61037461036c8261034d565b8484546102c5565b825550505050565b600090565b61038961037c565b610394818484610357565b505050565b5b818110156103b8576103ad600082610381565b60018101905061039a565b5050565b601f8211156103fd576103ce81610293565b6103d7846102a8565b810160208510156103e6578190505b6103fa6103f2856102a8565b830182610399565b50505b505050565b600082821c905092915050565b600061042060001984600802610402565b1980831691505092915050565b6000610439838361040f565b9150826002028217905092915050565b610452826101f9565b67ffffffffffffffff81111561046b5761046a610204565b5b6104758254610262565b6104808282856103bc565b600060209050601f8311600181146104b357600084156104a1578287015190505b6104ab858261042d565b865550610513565b601f1984166104c186610293565b60005b828110156104e9578489015182556001820191506020850194506020810190506104c4565b868310156105065784890151610502601f89168261040f565b8355505b6001600288020188555050505b505050505050565b600073ffffffffffffffffffffffffffffffffffffffff82169050919050565b60006105468261051b565b9050919050565b6105568161053b565b82525050565b6000602082019050610571600083018461054d565b92915050565b611c15806105866000396000f3fe608060405234801561001057600080fd5b506004361061014d5760003560e01c806348e64817116100c357806395d89b411161007c57806395d89b411461037c578063a9059cbb1461039a578063c4163518146103ca578063dd62ed3e146103fa578063dd6a4a7f1461042a578063f2fde38b1461045a5761014d565b806348e64817146102ba5780635a75aa1c146102ea57806370a0823114610306578063715018a6146103365780638da5cb5b14610340578063947a36fb1461035e5761014d565b806323b872dd1161011557806323b872dd1461020a5780632628ba0f1461023a578063313ce5671461026a5780633158952e1461028857806334a924091461029257806342c8705b146102b05761014d565b806305313b1c1461015257806306fdde031461016e578063095ea7b31461018c57806318160ddd146101bc5780631e82b1b9146101da575b600080fd5b61016c60048036038101906101679190611526565b610476565b005b610176610495565b60405161018391906115e3565b60405180910390f35b6101a660048036038101906101a19190611663565b610527565b6040516101b391906116be565b60405180910390f35b6101c461054a565b6040516101d191906116e8565b60405180910390f35b6101f460048036038101906101ef9190611703565b610554565b60405161020191906116e8565b60405180910390f35b610224600480360381019061021f9190611730565b61056c565b60405161023191906116be565b60405180910390f35b610254600480360381019061024f9190611703565b61059b565b60405161026191906116e8565b60405180910390f35b6102726105b3565b60405161027f919061179f565b60405180910390f35b6102906105bc565b005b61029a61089a565b6040516102a791906116e8565b60405180910390f35b6102b86108a0565b005b6102d460048036038101906102cf9190611703565b610acd565b6040516102e191906116e8565b60405180910390f35b61030460048036038101906102ff9190611526565b610ae5565b005b610320600480360381019061031b9190611703565b610af7565b60405161032d91906116e8565b60405180910390f35b61033e610b3f565b005b610348610b53565b60405161035591906117c9565b60405180910390f35b610366610b7d565b60405161037391906116e8565b60405180910390f35b610384610b83565b60405161039191906115e3565b60405180910390f35b6103b460048036038101906103af9190611663565b610c15565b6040516103c191906116be565b60405180910390f35b6103e460048036038101906103df9190611703565b610c38565b6040516103f191906116be565b60405180910390f35b610414600480360381019061040f91906117e4565b610c58565b60405161042191906116e8565b60405180910390f35b610444600480360381019061043f9190611703565b610cdf565b60405161045191906116e8565b60405180910390f35b610474600480360381019061046f9190611703565b610cf7565b005b61047e610d7d565b610e108161048c9190611853565b60078190555050565b6060600380546104a4906118c4565b80601f01602080910402602001604051908101604052809291908181526020018280546104d0906118c4565b801561051d5780601f106104f25761010080835404028352916020019161051d565b820191906000526020600020905b81548152906001019060200180831161050057829003601f168201915b5050505050905090565b600080610532610e04565b905061053f818585610e0c565b600191505092915050565b6000600254905090565b600b6020528060005260406000206000915090505481565b600080610577610e04565b9050610584858285610e1e565b61058f858585610eb3565b60019150509392505050565b600c6020528060005260406000206000915090505481565b60006012905090565b6000600860003373ffffffffffffffffffffffffffffffffffffffff1673ffffffffffffffffffffffffffffffffffffffff1681526020019081526020016000205414806106555750600754600860003373ffffffffffffffffffffffffffffffffffffffff1673ffffffffffffffffffffffffffffffffffffffff1681526020019081526020016000205461065291906118f5565b42115b610694576040517f08c379a000000000000000000000000000000000000000000000000000000000815260040161068b90611975565b60405180910390fd5b6106be336106a06105b3565b600a6106ac9190611ac8565b6006546106b99190611853565b610fa7565b6106c66105b3565b600a6106d29190611ac8565b6006546106df9190611853565b600960003373ffffffffffffffffffffffffffffffffffffffff1673ffffffffffffffffffffffffffffffffffffffff168152602001908152602001600020600082825461072d91906118f5565b925050819055506000600860003373ffffffffffffffffffffffffffffffffffffffff1673ffffffffffffffffffffffffffffffffffffffff168152602001908152602001600020819055506000600a60003373ffffffffffffffffffffffffffffffffffffffff1673ffffffffffffffffffffffffffffffffffffffff16815260200190815260200160002060006101000a81548160ff0219169083151502179055506001600b60003373ffffffffffffffffffffffffffffffffffffffff1673ffffffffffffffffffffffffffffffffffffffff168152602001908152602001600020600082825461082191906118f5565b925050819055503373ffffffffffffffffffffffffffffffffffffffff167fa7a99cf2e5969c917da06fc242708fb1b50604fa39e99c73924c8f4a292339e96108686105b3565b600a6108749190611ac8565b6006546108819190611853565b42604051610890929190611b13565b60405180910390a2565b60065481565b60001515600a60003373ffffffffffffffffffffffffffffffffffffffff1673ffffffffffffffffffffffffffffffffffffffff16815260200190815260200160002060009054906101000a900460ff16151514610933576040517f08c379a000000000000000000000000000000000000000000000000000000000815260040161092a90611b88565b60405180910390fd5b42600860003373ffffffffffffffffffffffffffffffffffffffff1673ffffffffffffffffffffffffffffffffffffffff168152602001908152602001600020819055506001600a60003373ffffffffffffffffffffffffffffffffffffffff1673ffffffffffffffffffffffffffffffffffffffff16815260200190815260200160002060006101000a81548160ff0219169083151502179055503373ffffffffffffffffffffffffffffffffffffffff167ff7a9b37ce495c53179857e71e15773736a301ae3c1299343d64e7aefad712d3b610a0f6105b3565b600a610a1b9190611ac8565b600654610a289190611853565b42604051610a37929190611b13565b60405180910390a26000600c60003373ffffffffffffffffffffffffffffffffffffffff1673ffffffffffffffffffffffffffffffffffffffff1681526020019081526020016000205403610acb5742600c60003373ffffffffffffffffffffffffffffffffffffffff1673ffffffffffffffffffffffffffffffffffffffff168152602001908152602001600020819055505b565b60086020528060005260406000206000915090505481565b610aed610d7d565b8060068190555050565b60008060008373ffffffffffffffffffffffffffffffffffffffff1673ffffffffffffffffffffffffffffffffffffffff168152602001908152602001600020549050919050565b610b47610d7d565b610b516000611029565b565b6000600560009054906101000a900473ffffffffffffffffffffffffffffffffffffffff16905090565b60075481565b606060048054610b92906118c4565b80601f0160208091040260200160405190810160405280929190818152602001828054610bbe906118c4565b8015610c0b5780601f10610be057610100808354040283529160200191610c0b565b820191906000526020600020905b815481529060010190602001808311610bee57829003601f168201915b5050505050905090565b600080610c20610e04565b9050610c2d818585610eb3565b600191505092915050565b600a6020528060005260406000206000915054906101000a900460ff1681565b6000600160008473ffffffffffffffffffffffffffffffffffffffff1673ffffffffffffffffffffffffffffffffffffffff16815260200190815260200160002060008373ffffffffffffffffffffffffffffffffffffffff1673ffffffffffffffffffffffffffffffffffffffff16815260200190815260200160002054905092915050565b60096020528060005260406000206000915090505481565b610cff610d7d565b600073ffffffffffffffffffffffffffffffffffffffff168173ffffffffffffffffffffffffffffffffffffffff1603610d715760006040517f1e4fbdf7000000000000000000000000000000000000000000000000000000008152600401610d6891906117c9565b60405180910390fd5b610d7a81611029565b50565b610d85610e04565b73ffffffffffffffffffffffffffffffffffffffff16610da3610b53565b73ffffffffffffffffffffffffffffffffffffffff1614610e0257610dc6610e04565b6040517f118cdaa7000000000000000000000000000000000000000000000000000000008152600401610df991906117c9565b60405180910390fd5b565b600033905090565b610e1983838360016110ef565b505050565b6000610e2a8484610c58565b90507fffffffffffffffffffffffffffffffffffffffffffffffffffffffffffffffff811015610ead5781811015610e9d578281836040517ffb8f41b2000000000000000000000000000000000000000000000000000000008152600401610e9493929190611ba8565b60405180910390fd5b610eac848484840360006110ef565b5b50505050565b600073ffffffffffffffffffffffffffffffffffffffff168373ffffffffffffffffffffffffffffffffffffffff1603610f255760006040517f96c6fd1e000000000000000000000000000000000000000000000000000000008152600401610f1c91906117c9565b60405180910390fd5b600073ffffffffffffffffffffffffffffffffffffffff168273ffffffffffffffffffffffffffffffffffffffff1603610f975760006040517fec442f05000000000000000000000000000000000000000000000000000000008152600401610f8e91906117c9565b60405180910390fd5b610fa28383836112c6565b505050565b600073ffffffffffffffffffffffffffffffffffffffff168273ffffffffffffffffffffffffffffffffffffffff16036110195760006040517fec442f0500000000000000000000000000000000000000000000000000000000815260040161101091906117c9565b60405180910390fd5b611025600083836112c6565b5050565b6000600560009054906101000a900473ffffffffffffffffffffffffffffffffffffffff16905081600560006101000a81548173ffffffffffffffffffffffffffffffffffffffff021916908373ffffffffffffffffffffffffffffffffffffffff1602179055508173ffffffffffffffffffffffffffffffffffffffff168173ffffffffffffffffffffffffffffffffffffffff167f8be0079c531659141344cd1fd0a4f28419497f9722a3daafe3b4186f6b6457e060405160405180910390a35050565b600073ffffffffffffffffffffffffffffffffffffffff168473ffffffffffffffffffffffffffffffffffffffff16036111615760006040517fe602df0500000000000000000000000000000000000000000000000000000000815260040161115891906117c9565b60405180910390fd5b600073ffffffffffffffffffffffffffffffffffffffff168373ffffffffffffffffffffffffffffffffffffffff16036111d35760006040517f94280d620000000000000000000000000000000000000000000000000000000081526004016111ca91906117c9565b60405180910390fd5b81600160008673ffffffffffffffffffffffffffffffffffffffff1673ffffffffffffffffffffffffffffffffffffffff16815260200190815260200160002060008573ffffffffffffffffffffffffffffffffffffffff1673ffffffffffffffffffffffffffffffffffffffff1681526020019081526020016000208190555080156112c0578273ffffffffffffffffffffffffffffffffffffffff168473ffffffffffffffffffffffffffffffffffffffff167f8c5be1e5ebec7d5bd14f71427d1e84f3dd0314c0f7b2291e5b200ac8c7c3b925846040516112b791906116e8565b60405180910390a35b50505050565b600073ffffffffffffffffffffffffffffffffffffffff168373ffffffffffffffffffffffffffffffffffffffff160361131857806002600082825461130c91906118f5565b925050819055506113eb565b60008060008573ffffffffffffffffffffffffffffffffffffffff1673ffffffffffffffffffffffffffffffffffffffff168152602001908152602001600020549050818110156113a4578381836040517fe450d38c00000000000000000000000000000000000000000000000000000000815260040161139b93929190611ba8565b60405180910390fd5b8181036000808673ffffffffffffffffffffffffffffffffffffffff1673ffffffffffffffffffffffffffffffffffffffff16815260200190815260200160002081905550505b600073ffffffffffffffffffffffffffffffffffffffff168273ffffffffffffffffffffffffffffffffffffffff16036114345780600260008282540392505081905550611481565b806000808473ffffffffffffffffffffffffffffffffffffffff1673ffffffffffffffffffffffffffffffffffffffff168152602001908152602001600020600082825401925050819055505b8173ffffffffffffffffffffffffffffffffffffffff168373ffffffffffffffffffffffffffffffffffffffff167fddf252ad1be2c89b69c2b068fc378daa952ba7f163c4a11628f55a4df523b3ef836040516114de91906116e8565b60405180910390a3505050565b600080fd5b6000819050919050565b611503816114f0565b811461150e57600080fd5b50565b600081359050611520816114fa565b92915050565b60006020828403121561153c5761153b6114eb565b5b600061154a84828501611511565b91505092915050565b600081519050919050565b600082825260208201905092915050565b60005b8381101561158d578082015181840152602081019050611572565b60008484015250505050565b6000601f19601f8301169050919050565b60006115b582611553565b6115bf818561155e565b93506115cf81856020860161156f565b6115d881611599565b840191505092915050565b600060208201905081810360008301526115fd81846115aa565b905092915050565b600073ffffffffffffffffffffffffffffffffffffffff82169050919050565b600061163082611605565b9050919050565b61164081611625565b811461164b57600080fd5b50565b60008135905061165d81611637565b92915050565b6000806040838503121561167a576116796114eb565b5b60006116888582860161164e565b925050602061169985828601611511565b9150509250929050565b60008115159050919050565b6116b8816116a3565b82525050565b60006020820190506116d360008301846116af565b92915050565b6116e2816114f0565b82525050565b60006020820190506116fd60008301846116d9565b92915050565b600060208284031215611719576117186114eb565b5b60006117278482850161164e565b91505092915050565b600080600060608486031215611749576117486114eb565b5b60006117578682870161164e565b93505060206117688682870161164e565b925050604061177986828701611511565b9150509250925092565b600060ff82169050919050565b61179981611783565b82525050565b60006020820190506117b46000830184611790565b92915050565b6117c381611625565b82525050565b60006020820190506117de60008301846117ba565b92915050565b600080604083850312156117fb576117fa6114eb565b5b60006118098582860161164e565b925050602061181a8582860161164e565b9150509250929050565b7f4e487b7100000000000000000000000000000000000000000000000000000000600052601160045260246000fd5b600061185e826114f0565b9150611869836114f0565b9250828202611877816114f0565b9150828204841483151761188e5761188d611824565b5b5092915050565b7f4e487b7100000000000000000000000000000000000000000000000000000000600052602260045260246000fd5b600060028204905060018216806118dc57607f821691505b6020821081036118ef576118ee611895565b5b50919050565b6000611900826114f0565b915061190b836114f0565b925082820190508082111561192357611922611824565b5b92915050565b7f576169742032344820666f72206e657874206d696e6500000000000000000000600082015250565b600061195f60168361155e565b915061196a82611929565b602082019050919050565b6000602082019050818103600083015261198e81611952565b9050919050565b60008160011c9050919050565b6000808291508390505b60018511156119ec578086048111156119c8576119c7611824565b5b60018516156119d75780820291505b80810290506119e585611995565b94506119ac565b94509492505050565b600082611a055760019050611ac1565b81611a135760009050611ac1565b8160018114611a295760028114611a3357611a62565b6001915050611ac1565b60ff841115611a4557611a44611824565b5b8360020a915084821115611a5c57611a5b611824565b5b50611ac1565b5060208310610133831016604e8410600b8410161715611a975782820a905083811115611a9257611a91611824565b5b611ac1565b611aa484848460016119a2565b92509050818404811115611abb57611aba611824565b5b81810290505b9392505050565b6000611ad3826114f0565b9150611ade83611783565b9250611b0b7fffffffffffffffffffffffffffffffffffffffffffffffffffffffffffffffff84846119f5565b905092915050565b6000604082019050611b2860008301856116d9565b611b3560208301846116d9565b9392505050565b7f416c7265616479206d696e696e672e2e2e2e0000000000000000000000000000600082015250565b6000611b7260128361155e565b9150611b7d82611b3c565b602082019050919050565b60006020820190508181036000830152611ba181611b65565b9050919050565b6000606082019050611bbd60008301866117ba565b611bca60208301856116d9565b611bd760408301846116d9565b94935050505056fea2646970667358221220672c9d55b6f6eb5461683459026f697b45a86c33e48f00a5a6daf9b8c7facfd264736f6c634300081c0033",
  "linkReferences": {},
  "deployedLinkReferences": {}
}